{
  "contractName": "MunichNFT",
  "abi": [
    {
      "inputs": [],
      "stateMutability": "nonpayable",
      "type": "constructor"
    },
    {
      "anonymous": false,
      "inputs": [
        {
          "indexed": true,
          "internalType": "address",
          "name": "owner",
          "type": "address"
        },
        {
          "indexed": true,
          "internalType": "address",
          "name": "approved",
          "type": "address"
        },
        {
          "indexed": true,
          "internalType": "uint256",
          "name": "tokenId",
          "type": "uint256"
        }
      ],
      "name": "Approval",
      "type": "event"
    },
    {
      "anonymous": false,
      "inputs": [
        {
          "indexed": true,
          "internalType": "address",
          "name": "owner",
          "type": "address"
        },
        {
          "indexed": true,
          "internalType": "address",
          "name": "operator",
          "type": "address"
        },
        {
          "indexed": false,
          "internalType": "bool",
          "name": "approved",
          "type": "bool"
        }
      ],
      "name": "ApprovalForAll",
      "type": "event"
    },
    {
      "anonymous": false,
      "inputs": [
        {
          "indexed": true,
          "internalType": "address",
          "name": "previousOwner",
          "type": "address"
        },
        {
          "indexed": true,
          "internalType": "address",
          "name": "newOwner",
          "type": "address"
        }
      ],
      "name": "OwnershipTransferred",
      "type": "event"
    },
    {
      "anonymous": false,
      "inputs": [
        {
          "indexed": true,
          "internalType": "address",
          "name": "from",
          "type": "address"
        },
        {
          "indexed": true,
          "internalType": "address",
          "name": "to",
          "type": "address"
        },
        {
          "indexed": true,
          "internalType": "uint256",
          "name": "tokenId",
          "type": "uint256"
        }
      ],
      "name": "Transfer",
      "type": "event"
    },
    {
      "inputs": [
        {
          "internalType": "address",
          "name": "to",
          "type": "address"
        },
        {
          "internalType": "uint256",
          "name": "tokenId",
          "type": "uint256"
        }
      ],
      "name": "approve",
      "outputs": [],
      "stateMutability": "nonpayable",
      "type": "function"
    },
    {
      "inputs": [
        {
          "internalType": "address",
          "name": "owner",
          "type": "address"
        }
      ],
      "name": "balanceOf",
      "outputs": [
        {
          "internalType": "uint256",
          "name": "",
          "type": "uint256"
        }
      ],
      "stateMutability": "view",
      "type": "function"
    },
    {
      "inputs": [
        {
          "internalType": "uint256",
          "name": "tokenId",
          "type": "uint256"
        }
      ],
      "name": "getApproved",
      "outputs": [
        {
          "internalType": "address",
          "name": "",
          "type": "address"
        }
      ],
      "stateMutability": "view",
      "type": "function"
    },
    {
      "inputs": [
        {
          "internalType": "address",
          "name": "owner",
          "type": "address"
        },
        {
          "internalType": "address",
          "name": "operator",
          "type": "address"
        }
      ],
      "name": "isApprovedForAll",
      "outputs": [
        {
          "internalType": "bool",
          "name": "",
          "type": "bool"
        }
      ],
      "stateMutability": "view",
      "type": "function"
    },
    {
      "inputs": [],
      "name": "name",
      "outputs": [
        {
          "internalType": "string",
          "name": "",
          "type": "string"
        }
      ],
      "stateMutability": "view",
      "type": "function"
    },
    {
      "inputs": [],
      "name": "owner",
      "outputs": [
        {
          "internalType": "address",
          "name": "",
          "type": "address"
        }
      ],
      "stateMutability": "view",
      "type": "function"
    },
    {
      "inputs": [
        {
          "internalType": "uint256",
          "name": "tokenId",
          "type": "uint256"
        }
      ],
      "name": "ownerOf",
      "outputs": [
        {
          "internalType": "address",
          "name": "",
          "type": "address"
        }
      ],
      "stateMutability": "view",
      "type": "function"
    },
    {
      "inputs": [],
      "name": "renounceOwnership",
      "outputs": [],
      "stateMutability": "nonpayable",
      "type": "function"
    },
    {
      "inputs": [
        {
          "internalType": "address",
          "name": "from",
          "type": "address"
        },
        {
          "internalType": "address",
          "name": "to",
          "type": "address"
        },
        {
          "internalType": "uint256",
          "name": "tokenId",
          "type": "uint256"
        }
      ],
      "name": "safeTransferFrom",
      "outputs": [],
      "stateMutability": "nonpayable",
      "type": "function"
    },
    {
      "inputs": [
        {
          "internalType": "address",
          "name": "from",
          "type": "address"
        },
        {
          "internalType": "address",
          "name": "to",
          "type": "address"
        },
        {
          "internalType": "uint256",
          "name": "tokenId",
          "type": "uint256"
        },
        {
          "internalType": "bytes",
          "name": "_data",
          "type": "bytes"
        }
      ],
      "name": "safeTransferFrom",
      "outputs": [],
      "stateMutability": "nonpayable",
      "type": "function"
    },
    {
      "inputs": [
        {
          "internalType": "address",
          "name": "operator",
          "type": "address"
        },
        {
          "internalType": "bool",
          "name": "approved",
          "type": "bool"
        }
      ],
      "name": "setApprovalForAll",
      "outputs": [],
      "stateMutability": "nonpayable",
      "type": "function"
    },
    {
      "inputs": [],
      "name": "symbol",
      "outputs": [
        {
          "internalType": "string",
          "name": "",
          "type": "string"
        }
      ],
      "stateMutability": "view",
      "type": "function"
    },
    {
      "inputs": [
        {
          "internalType": "uint256",
          "name": "index",
          "type": "uint256"
        }
      ],
      "name": "tokenByIndex",
      "outputs": [
        {
          "internalType": "uint256",
          "name": "",
          "type": "uint256"
        }
      ],
      "stateMutability": "view",
      "type": "function"
    },
    {
      "inputs": [
        {
          "internalType": "address",
          "name": "owner",
          "type": "address"
        },
        {
          "internalType": "uint256",
          "name": "index",
          "type": "uint256"
        }
      ],
      "name": "tokenOfOwnerByIndex",
      "outputs": [
        {
          "internalType": "uint256",
          "name": "",
          "type": "uint256"
        }
      ],
      "stateMutability": "view",
      "type": "function"
    },
    {
      "inputs": [],
      "name": "totalSupply",
      "outputs": [
        {
          "internalType": "uint256",
          "name": "",
          "type": "uint256"
        }
      ],
      "stateMutability": "view",
      "type": "function"
    },
    {
      "inputs": [
        {
          "internalType": "address",
          "name": "from",
          "type": "address"
        },
        {
          "internalType": "address",
          "name": "to",
          "type": "address"
        },
        {
          "internalType": "uint256",
          "name": "tokenId",
          "type": "uint256"
        }
      ],
      "name": "transferFrom",
      "outputs": [],
      "stateMutability": "nonpayable",
      "type": "function"
    },
    {
      "inputs": [
        {
          "internalType": "address",
          "name": "newOwner",
          "type": "address"
        }
      ],
      "name": "transferOwnership",
      "outputs": [],
      "stateMutability": "nonpayable",
      "type": "function"
    },
    {
      "inputs": [
        {
          "internalType": "address",
          "name": "to",
          "type": "address"
        },
        {
          "internalType": "string",
          "name": "uri",
          "type": "string"
        }
      ],
      "name": "mint",
      "outputs": [],
      "stateMutability": "nonpayable",
      "type": "function"
    },
    {
      "inputs": [
        {
          "internalType": "uint256",
          "name": "tokenId",
          "type": "uint256"
        }
      ],
      "name": "tokenURI",
      "outputs": [
        {
          "internalType": "string",
          "name": "",
          "type": "string"
        }
      ],
      "stateMutability": "view",
      "type": "function"
    },
    {
      "inputs": [
        {
          "internalType": "bytes4",
          "name": "interfaceId",
          "type": "bytes4"
        }
      ],
      "name": "supportsInterface",
      "outputs": [
        {
          "internalType": "bool",
          "name": "",
          "type": "bool"
        }
      ],
      "stateMutability": "view",
      "type": "function"
    }
  ],
  "bytecode": "0x60806040523480156200001157600080fd5b506040518060400160405280600981526020017f4d756e6963684e465400000000000000000000000000000000000000000000008152506040518060400160405280600381526020017f4d55430000000000000000000000000000000000000000000000000000000000815250816000908051906020019062000096929190620001a6565b508060019080519060200190620000af929190620001a6565b505050620000d2620000c6620000d860201b60201c565b620000e060201b60201c565b620002bb565b600033905090565b6000600b60009054906101000a900473ffffffffffffffffffffffffffffffffffffffff16905081600b60006101000a81548173ffffffffffffffffffffffffffffffffffffffff021916908373ffffffffffffffffffffffffffffffffffffffff1602179055508173ffffffffffffffffffffffffffffffffffffffff168173ffffffffffffffffffffffffffffffffffffffff167f8be0079c531659141344cd1fd0a4f28419497f9722a3daafe3b4186f6b6457e060405160405180910390a35050565b828054620001b49062000285565b90600052602060002090601f016020900481019282620001d8576000855562000224565b82601f10620001f357805160ff191683800117855562000224565b8280016001018555821562000224579182015b828111156200022357825182559160200191906001019062000206565b5b50905062000233919062000237565b5090565b5b808211156200025257600081600090555060010162000238565b5090565b7f4e487b7100000000000000000000000000000000000000000000000000000000600052602260045260246000fd5b600060028204905060018216806200029e57607f821691505b60208210811415620002b557620002b462000256565b5b50919050565b6137a280620002cb6000396000f3fe608060405234801561001057600080fd5b506004361061012c5760003560e01c806370a08231116100ad578063b88d4fde11610071578063b88d4fde14610343578063c87b56dd1461035f578063d0def5211461038f578063e985e9c5146103ab578063f2fde38b146103db5761012c565b806370a08231146102b1578063715018a6146102e15780638da5cb5b146102eb57806395d89b4114610309578063a22cb465146103275761012c565b806323b872dd116100f457806323b872dd146101e95780632f745c591461020557806342842e0e146102355780634f6ccce7146102515780636352211e146102815761012c565b806301ffc9a71461013157806306fdde0314610161578063081812fc1461017f578063095ea7b3146101af57806318160ddd146101cb575b600080fd5b61014b600480360381019061014691906122b3565b6103f7565b60405161015891906122fb565b60405180910390f35b610169610409565b60405161017691906123af565b60405180910390f35b61019960048036038101906101949190612407565b61049b565b6040516101a69190612475565b60405180910390f35b6101c960048036038101906101c491906124bc565b610520565b005b6101d3610638565b6040516101e0919061250b565b60405180910390f35b61020360048036038101906101fe9190612526565b610645565b005b61021f600480360381019061021a91906124bc565b6106a5565b60405161022c919061250b565b60405180910390f35b61024f600480360381019061024a9190612526565b61074a565b005b61026b60048036038101906102669190612407565b61076a565b604051610278919061250b565b60405180910390f35b61029b60048036038101906102969190612407565b6107db565b6040516102a89190612475565b60405180910390f35b6102cb60048036038101906102c69190612579565b61088d565b6040516102d8919061250b565b60405180910390f35b6102e9610945565b005b6102f36109cd565b6040516103009190612475565b60405180910390f35b6103116109f7565b60405161031e91906123af565b60405180910390f35b610341600480360381019061033c91906125d2565b610a89565b005b61035d60048036038101906103589190612747565b610c0a565b005b61037960048036038101906103749190612407565b610c6c565b60405161038691906123af565b60405180910390f35b6103a960048036038101906103a4919061286b565b610c7e565b005b6103c560048036038101906103c091906128c7565b610caf565b6040516103d291906122fb565b60405180910390f35b6103f560048036038101906103f09190612579565b610d43565b005b600061040282610e3b565b9050919050565b60606000805461041890612936565b80601f016020809104026020016040519081016040528092919081815260200182805461044490612936565b80156104915780601f1061046657610100808354040283529160200191610491565b820191906000526020600020905b81548152906001019060200180831161047457829003601f168201915b5050505050905090565b60006104a682610eb5565b6104e5576040517f08c379a00000000000000000000000000000000000000000000000000000000081526004016104dc906129da565b60405180910390fd5b6004600083815260200190815260200160002060009054906101000a900473ffffffffffffffffffffffffffffffffffffffff169050919050565b600061052b826107db565b90508073ffffffffffffffffffffffffffffffffffffffff168373ffffffffffffffffffffffffffffffffffffffff16141561059c576040517f08c379a000000000000000000000000000000000000000000000000000000000815260040161059390612a6c565b60405180910390fd5b8073ffffffffffffffffffffffffffffffffffffffff166105bb610f21565b73ffffffffffffffffffffffffffffffffffffffff1614806105ea57506105e9816105e4610f21565b610caf565b5b610629576040517f08c379a000000000000000000000000000000000000000000000000000000000815260040161062090612afe565b60405180910390fd5b6106338383610f29565b505050565b6000600880549050905090565b610656610650610f21565b82610fe2565b610695576040517f08c379a000000000000000000000000000000000000000000000000000000000815260040161068c90612b90565b60405180910390fd5b6106a08383836110c0565b505050565b60006106b08361088d565b82106106f1576040517f08c379a00000000000000000000000000000000000000000000000000000000081526004016106e890612c22565b60405180910390fd5b600660008473ffffffffffffffffffffffffffffffffffffffff1673ffffffffffffffffffffffffffffffffffffffff168152602001908152602001600020600083815260200190815260200160002054905092915050565b61076583838360405180602001604052806000815250610c0a565b505050565b6000610774610638565b82106107b5576040517f08c379a00000000000000000000000000000000000000000000000000000000081526004016107ac90612cb4565b60405180910390fd5b600882815481106107c9576107c8612cd4565b5b90600052602060002001549050919050565b6000806002600084815260200190815260200160002060009054906101000a900473ffffffffffffffffffffffffffffffffffffffff169050600073ffffffffffffffffffffffffffffffffffffffff168173ffffffffffffffffffffffffffffffffffffffff161415610884576040517f08c379a000000000000000000000000000000000000000000000000000000000815260040161087b90612d75565b60405180910390fd5b80915050919050565b60008073ffffffffffffffffffffffffffffffffffffffff168273ffffffffffffffffffffffffffffffffffffffff1614156108fe576040517f08c379a00000000000000000000000000000000000000000000000000000000081526004016108f590612e07565b60405180910390fd5b600360008373ffffffffffffffffffffffffffffffffffffffff1673ffffffffffffffffffffffffffffffffffffffff168152602001908152602001600020549050919050565b61094d610f21565b73ffffffffffffffffffffffffffffffffffffffff1661096b6109cd565b73ffffffffffffffffffffffffffffffffffffffff16146109c1576040517f08c379a00000000000000000000000000000000000000000000000000000000081526004016109b890612e73565b60405180910390fd5b6109cb600061131c565b565b6000600b60009054906101000a900473ffffffffffffffffffffffffffffffffffffffff16905090565b606060018054610a0690612936565b80601f0160208091040260200160405190810160405280929190818152602001828054610a3290612936565b8015610a7f5780601f10610a5457610100808354040283529160200191610a7f565b820191906000526020600020905b815481529060010190602001808311610a6257829003601f168201915b5050505050905090565b610a91610f21565b73ffffffffffffffffffffffffffffffffffffffff168273ffffffffffffffffffffffffffffffffffffffff161415610aff576040517f08c379a0000000000000000000000000000000000000000000000000000000008152600401610af690612edf565b60405180910390fd5b8060056000610b0c610f21565b73ffffffffffffffffffffffffffffffffffffffff1673ffffffffffffffffffffffffffffffffffffffff16815260200190815260200160002060008473ffffffffffffffffffffffffffffffffffffffff1673ffffffffffffffffffffffffffffffffffffffff16815260200190815260200160002060006101000a81548160ff0219169083151502179055508173ffffffffffffffffffffffffffffffffffffffff16610bb9610f21565b73ffffffffffffffffffffffffffffffffffffffff167f17307eab39ab6107e8899845ad3d59bd9653f200f220920489ca2b5937696c3183604051610bfe91906122fb565b60405180910390a35050565b610c1b610c15610f21565b83610fe2565b610c5a576040517f08c379a0000000000000000000000000000000000000000000000000000000008152600401610c5190612b90565b60405180910390fd5b610c66848484846113e2565b50505050565b6060610c778261143e565b9050919050565b6000610c8a600c611590565b9050610c96600c61159e565b610ca083826115b4565b610caa81836115d2565b505050565b6000600560008473ffffffffffffffffffffffffffffffffffffffff1673ffffffffffffffffffffffffffffffffffffffff16815260200190815260200160002060008373ffffffffffffffffffffffffffffffffffffffff1673ffffffffffffffffffffffffffffffffffffffff16815260200190815260200160002060009054906101000a900460ff16905092915050565b610d4b610f21565b73ffffffffffffffffffffffffffffffffffffffff16610d696109cd565b73ffffffffffffffffffffffffffffffffffffffff1614610dbf576040517f08c379a0000000000000000000000000000000000000000000000000000000008152600401610db690612e73565b60405180910390fd5b600073ffffffffffffffffffffffffffffffffffffffff168173ffffffffffffffffffffffffffffffffffffffff161415610e2f576040517f08c379a0000000000000000000000000000000000000000000000000000000008152600401610e2690612f71565b60405180910390fd5b610e388161131c565b50565b60007f780e9d63000000000000000000000000000000000000000000000000000000007bffffffffffffffffffffffffffffffffffffffffffffffffffffffff1916827bffffffffffffffffffffffffffffffffffffffffffffffffffffffff19161480610eae5750610ead82611646565b5b9050919050565b60008073ffffffffffffffffffffffffffffffffffffffff166002600084815260200190815260200160002060009054906101000a900473ffffffffffffffffffffffffffffffffffffffff1673ffffffffffffffffffffffffffffffffffffffff1614159050919050565b600033905090565b816004600083815260200190815260200160002060006101000a81548173ffffffffffffffffffffffffffffffffffffffff021916908373ffffffffffffffffffffffffffffffffffffffff160217905550808273ffffffffffffffffffffffffffffffffffffffff16610f9c836107db565b73ffffffffffffffffffffffffffffffffffffffff167f8c5be1e5ebec7d5bd14f71427d1e84f3dd0314c0f7b2291e5b200ac8c7c3b92560405160405180910390a45050565b6000610fed82610eb5565b61102c576040517f08c379a000000000000000000000000000000000000000000000000000000000815260040161102390613003565b60405180910390fd5b6000611037836107db565b90508073ffffffffffffffffffffffffffffffffffffffff168473ffffffffffffffffffffffffffffffffffffffff1614806110a657508373ffffffffffffffffffffffffffffffffffffffff1661108e8461049b565b73ffffffffffffffffffffffffffffffffffffffff16145b806110b757506110b68185610caf565b5b91505092915050565b8273ffffffffffffffffffffffffffffffffffffffff166110e0826107db565b73ffffffffffffffffffffffffffffffffffffffff1614611136576040517f08c379a000000000000000000000000000000000000000000000000000000000815260040161112d90613095565b60405180910390fd5b600073ffffffffffffffffffffffffffffffffffffffff168273ffffffffffffffffffffffffffffffffffffffff1614156111a6576040517f08c379a000000000000000000000000000000000000000000000000000000000815260040161119d90613127565b60405180910390fd5b6111b1838383611728565b6111bc600082610f29565b6001600360008573ffffffffffffffffffffffffffffffffffffffff1673ffffffffffffffffffffffffffffffffffffffff168152602001908152602001600020600082825461120c9190613176565b925050819055506001600360008473ffffffffffffffffffffffffffffffffffffffff1673ffffffffffffffffffffffffffffffffffffffff168152602001908152602001600020600082825461126391906131aa565b92505081905550816002600083815260200190815260200160002060006101000a81548173ffffffffffffffffffffffffffffffffffffffff021916908373ffffffffffffffffffffffffffffffffffffffff160217905550808273ffffffffffffffffffffffffffffffffffffffff168473ffffffffffffffffffffffffffffffffffffffff167fddf252ad1be2c89b69c2b068fc378daa952ba7f163c4a11628f55a4df523b3ef60405160405180910390a4505050565b6000600b60009054906101000a900473ffffffffffffffffffffffffffffffffffffffff16905081600b60006101000a81548173ffffffffffffffffffffffffffffffffffffffff021916908373ffffffffffffffffffffffffffffffffffffffff1602179055508173ffffffffffffffffffffffffffffffffffffffff168173ffffffffffffffffffffffffffffffffffffffff167f8be0079c531659141344cd1fd0a4f28419497f9722a3daafe3b4186f6b6457e060405160405180910390a35050565b6113ed8484846110c0565b6113f984848484611738565b611438576040517f08c379a000000000000000000000000000000000000000000000000000000000815260040161142f90613272565b60405180910390fd5b50505050565b606061144982610eb5565b611488576040517f08c379a000000000000000000000000000000000000000000000000000000000815260040161147f90613304565b60405180910390fd5b6000600a600084815260200190815260200160002080546114a890612936565b80601f01602080910402602001604051908101604052809291908181526020018280546114d490612936565b80156115215780601f106114f657610100808354040283529160200191611521565b820191906000526020600020905b81548152906001019060200180831161150457829003601f168201915b5050505050905060006115326118c0565b905060008151141561154857819250505061158b565b60008251111561157d578082604051602001611565929190613360565b6040516020818303038152906040529250505061158b565b611586846118d7565b925050505b919050565b600081600001549050919050565b6001816000016000828254019250508190555050565b6115ce82826040518060200160405280600081525061197e565b5050565b6115db82610eb5565b61161a576040517f08c379a0000000000000000000000000000000000000000000000000000000008152600401611611906133f6565b60405180910390fd5b80600a600084815260200190815260200160002090805190602001906116419291906121a4565b505050565b60007f80ac58cd000000000000000000000000000000000000000000000000000000007bffffffffffffffffffffffffffffffffffffffffffffffffffffffff1916827bffffffffffffffffffffffffffffffffffffffffffffffffffffffff1916148061171157507f5b5e139f000000000000000000000000000000000000000000000000000000007bffffffffffffffffffffffffffffffffffffffffffffffffffffffff1916827bffffffffffffffffffffffffffffffffffffffffffffffffffffffff1916145b806117215750611720826119d9565b5b9050919050565b611733838383611a43565b505050565b60006117598473ffffffffffffffffffffffffffffffffffffffff16611b57565b156118b3578373ffffffffffffffffffffffffffffffffffffffff1663150b7a02611782610f21565b8786866040518563ffffffff1660e01b81526004016117a4949392919061346b565b6020604051808303816000875af19250505080156117e057506040513d601f19601f820116820180604052508101906117dd91906134cc565b60015b611863573d8060008114611810576040519150601f19603f3d011682016040523d82523d6000602084013e611815565b606091505b5060008151141561185b576040517f08c379a000000000000000000000000000000000000000000000000000000000815260040161185290613272565b60405180910390fd5b805181602001fd5b63150b7a0260e01b7bffffffffffffffffffffffffffffffffffffffffffffffffffffffff1916817bffffffffffffffffffffffffffffffffffffffffffffffffffffffff1916149150506118b8565b600190505b949350505050565b606060405180602001604052806000815250905090565b60606118e282610eb5565b611921576040517f08c379a00000000000000000000000000000000000000000000000000000000081526004016119189061356b565b60405180910390fd5b600061192b6118c0565b9050600081511161194b5760405180602001604052806000815250611976565b8061195584611b6a565b604051602001611966929190613360565b6040516020818303038152906040525b915050919050565b6119888383611ccb565b6119956000848484611738565b6119d4576040517f08c379a00000000000000000000000000000000000000000000000000000000081526004016119cb90613272565b60405180910390fd5b505050565b60007f01ffc9a7000000000000000000000000000000000000000000000000000000007bffffffffffffffffffffffffffffffffffffffffffffffffffffffff1916827bffffffffffffffffffffffffffffffffffffffffffffffffffffffff1916149050919050565b611a4e838383611e99565b600073ffffffffffffffffffffffffffffffffffffffff168373ffffffffffffffffffffffffffffffffffffffff161415611a9157611a8c81611e9e565b611ad0565b8173ffffffffffffffffffffffffffffffffffffffff168373ffffffffffffffffffffffffffffffffffffffff1614611acf57611ace8382611ee7565b5b5b600073ffffffffffffffffffffffffffffffffffffffff168273ffffffffffffffffffffffffffffffffffffffff161415611b1357611b0e81612054565b611b52565b8273ffffffffffffffffffffffffffffffffffffffff168273ffffffffffffffffffffffffffffffffffffffff1614611b5157611b508282612125565b5b5b505050565b600080823b905060008111915050919050565b60606000821415611bb2576040518060400160405280600181526020017f30000000000000000000000000000000000000000000000000000000000000008152509050611cc6565b600082905060005b60008214611be4578080611bcd9061358b565b915050600a82611bdd9190613603565b9150611bba565b60008167ffffffffffffffff811115611c0057611bff61261c565b5b6040519080825280601f01601f191660200182016040528015611c325781602001600182028036833780820191505090505b5090505b60008514611cbf57600182611c4b9190613176565b9150600a85611c5a9190613634565b6030611c6691906131aa565b60f81b818381518110611c7c57611c7b612cd4565b5b60200101907effffffffffffffffffffffffffffffffffffffffffffffffffffffffffffff1916908160001a905350600a85611cb89190613603565b9450611c36565b8093505050505b919050565b600073ffffffffffffffffffffffffffffffffffffffff168273ffffffffffffffffffffffffffffffffffffffff161415611d3b576040517f08c379a0000000000000000000000000000000000000000000000000000000008152600401611d32906136b1565b60405180910390fd5b611d4481610eb5565b15611d84576040517f08c379a0000000000000000000000000000000000000000000000000000000008152600401611d7b9061371d565b60405180910390fd5b611d9060008383611728565b6001600360008473ffffffffffffffffffffffffffffffffffffffff1673ffffffffffffffffffffffffffffffffffffffff1681526020019081526020016000206000828254611de091906131aa565b92505081905550816002600083815260200190815260200160002060006101000a81548173ffffffffffffffffffffffffffffffffffffffff021916908373ffffffffffffffffffffffffffffffffffffffff160217905550808273ffffffffffffffffffffffffffffffffffffffff16600073ffffffffffffffffffffffffffffffffffffffff167fddf252ad1be2c89b69c2b068fc378daa952ba7f163c4a11628f55a4df523b3ef60405160405180910390a45050565b505050565b6008805490506009600083815260200190815260200160002081905550600881908060018154018082558091505060019003906000526020600020016000909190919091505550565b60006001611ef48461088d565b611efe9190613176565b9050600060076000848152602001908152602001600020549050818114611fe3576000600660008673ffffffffffffffffffffffffffffffffffffffff1673ffffffffffffffffffffffffffffffffffffffff168152602001908152602001600020600084815260200190815260200160002054905080600660008773ffffffffffffffffffffffffffffffffffffffff1673ffffffffffffffffffffffffffffffffffffffff168152602001908152602001600020600084815260200190815260200160002081905550816007600083815260200190815260200160002081905550505b6007600084815260200190815260200160002060009055600660008573ffffffffffffffffffffffffffffffffffffffff1673ffffffffffffffffffffffffffffffffffffffff16815260200190815260200160002060008381526020019081526020016000206000905550505050565b600060016008805490506120689190613176565b905060006009600084815260200190815260200160002054905060006008838154811061209857612097612cd4565b5b9060005260206000200154905080600883815481106120ba576120b9612cd4565b5b9060005260206000200181905550816009600083815260200190815260200160002081905550600960008581526020019081526020016000206000905560088054806121095761210861373d565b5b6001900381819060005260206000200160009055905550505050565b60006121308361088d565b905081600660008573ffffffffffffffffffffffffffffffffffffffff1673ffffffffffffffffffffffffffffffffffffffff168152602001908152602001600020600083815260200190815260200160002081905550806007600084815260200190815260200160002081905550505050565b8280546121b090612936565b90600052602060002090601f0160209004810192826121d25760008555612219565b82601f106121eb57805160ff1916838001178555612219565b82800160010185558215612219579182015b828111156122185782518255916020019190600101906121fd565b5b509050612226919061222a565b5090565b5b8082111561224357600081600090555060010161222b565b5090565b6000604051905090565b600080fd5b600080fd5b60007fffffffff0000000000000000000000000000000000000000000000000000000082169050919050565b6122908161225b565b811461229b57600080fd5b50565b6000813590506122ad81612287565b92915050565b6000602082840312156122c9576122c8612251565b5b60006122d78482850161229e565b91505092915050565b60008115159050919050565b6122f5816122e0565b82525050565b600060208201905061231060008301846122ec565b92915050565b600081519050919050565b600082825260208201905092915050565b60005b83811015612350578082015181840152602081019050612335565b8381111561235f576000848401525b50505050565b6000601f19601f8301169050919050565b600061238182612316565b61238b8185612321565b935061239b818560208601612332565b6123a481612365565b840191505092915050565b600060208201905081810360008301526123c98184612376565b905092915050565b6000819050919050565b6123e4816123d1565b81146123ef57600080fd5b50565b600081359050612401816123db565b92915050565b60006020828403121561241d5761241c612251565b5b600061242b848285016123f2565b91505092915050565b600073ffffffffffffffffffffffffffffffffffffffff82169050919050565b600061245f82612434565b9050919050565b61246f81612454565b82525050565b600060208201905061248a6000830184612466565b92915050565b61249981612454565b81146124a457600080fd5b50565b6000813590506124b681612490565b92915050565b600080604083850312156124d3576124d2612251565b5b60006124e1858286016124a7565b92505060206124f2858286016123f2565b9150509250929050565b612505816123d1565b82525050565b600060208201905061252060008301846124fc565b92915050565b60008060006060848603121561253f5761253e612251565b5b600061254d868287016124a7565b935050602061255e868287016124a7565b925050604061256f868287016123f2565b9150509250925092565b60006020828403121561258f5761258e612251565b5b600061259d848285016124a7565b91505092915050565b6125af816122e0565b81146125ba57600080fd5b50565b6000813590506125cc816125a6565b92915050565b600080604083850312156125e9576125e8612251565b5b60006125f7858286016124a7565b9250506020612608858286016125bd565b9150509250929050565b600080fd5b600080fd5b7f4e487b7100000000000000000000000000000000000000000000000000000000600052604160045260246000fd5b61265482612365565b810181811067ffffffffffffffff821117156126735761267261261c565b5b80604052505050565b6000612686612247565b9050612692828261264b565b919050565b600067ffffffffffffffff8211156126b2576126b161261c565b5b6126bb82612365565b9050602081019050919050565b82818337600083830152505050565b60006126ea6126e584612697565b61267c565b90508281526020810184848401111561270657612705612617565b5b6127118482856126c8565b509392505050565b600082601f83011261272e5761272d612612565b5b813561273e8482602086016126d7565b91505092915050565b6000806000806080858703121561276157612760612251565b5b600061276f878288016124a7565b9450506020612780878288016124a7565b9350506040612791878288016123f2565b925050606085013567ffffffffffffffff8111156127b2576127b1612256565b5b6127be87828801612719565b91505092959194509250565b600067ffffffffffffffff8211156127e5576127e461261c565b5b6127ee82612365565b9050602081019050919050565b600061280e612809846127ca565b61267c565b90508281526020810184848401111561282a57612829612617565b5b6128358482856126c8565b509392505050565b600082601f83011261285257612851612612565b5b81356128628482602086016127fb565b91505092915050565b6000806040838503121561288257612881612251565b5b6000612890858286016124a7565b925050602083013567ffffffffffffffff8111156128b1576128b0612256565b5b6128bd8582860161283d565b9150509250929050565b600080604083850312156128de576128dd612251565b5b60006128ec858286016124a7565b92505060206128fd858286016124a7565b9150509250929050565b7f4e487b7100000000000000000000000000000000000000000000000000000000600052602260045260246000fd5b6000600282049050600182168061294e57607f821691505b6020821081141561296257612961612907565b5b50919050565b7f4552433732313a20617070726f76656420717565727920666f72206e6f6e657860008201527f697374656e7420746f6b656e0000000000000000000000000000000000000000602082015250565b60006129c4602c83612321565b91506129cf82612968565b604082019050919050565b600060208201905081810360008301526129f3816129b7565b9050919050565b7f4552433732313a20617070726f76616c20746f2063757272656e74206f776e6560008201527f7200000000000000000000000000000000000000000000000000000000000000602082015250565b6000612a56602183612321565b9150612a61826129fa565b604082019050919050565b60006020820190508181036000830152612a8581612a49565b9050919050565b7f4552433732313a20617070726f76652063616c6c6572206973206e6f74206f7760008201527f6e6572206e6f7220617070726f76656420666f7220616c6c0000000000000000602082015250565b6000612ae8603883612321565b9150612af382612a8c565b604082019050919050565b60006020820190508181036000830152612b1781612adb565b9050919050565b7f4552433732313a207472616e736665722063616c6c6572206973206e6f74206f60008201527f776e6572206e6f7220617070726f766564000000000000000000000000000000602082015250565b6000612b7a603183612321565b9150612b8582612b1e565b604082019050919050565b60006020820190508181036000830152612ba981612b6d565b9050919050565b7f455243373231456e756d657261626c653a206f776e657220696e646578206f7560008201527f74206f6620626f756e6473000000000000000000000000000000000000000000602082015250565b6000612c0c602b83612321565b9150612c1782612bb0565b604082019050919050565b60006020820190508181036000830152612c3b81612bff565b9050919050565b7f455243373231456e756d657261626c653a20676c6f62616c20696e646578206f60008201527f7574206f6620626f756e64730000000000000000000000000000000000000000602082015250565b6000612c9e602c83612321565b9150612ca982612c42565b604082019050919050565b60006020820190508181036000830152612ccd81612c91565b9050919050565b7f4e487b7100000000000000000000000000000000000000000000000000000000600052603260045260246000fd5b7f4552433732313a206f776e657220717565727920666f72206e6f6e657869737460008201527f656e7420746f6b656e0000000000000000000000000000000000000000000000602082015250565b6000612d5f602983612321565b9150612d6a82612d03565b604082019050919050565b60006020820190508181036000830152612d8e81612d52565b9050919050565b7f4552433732313a2062616c616e636520717565727920666f7220746865207a6560008201527f726f206164647265737300000000000000000000000000000000000000000000602082015250565b6000612df1602a83612321565b9150612dfc82612d95565b604082019050919050565b60006020820190508181036000830152612e2081612de4565b9050919050565b7f4f776e61626c653a2063616c6c6572206973206e6f7420746865206f776e6572600082015250565b6000612e5d602083612321565b9150612e6882612e27565b602082019050919050565b60006020820190508181036000830152612e8c81612e50565b9050919050565b7f4552433732313a20617070726f766520746f2063616c6c657200000000000000600082015250565b6000612ec9601983612321565b9150612ed482612e93565b602082019050919050565b60006020820190508181036000830152612ef881612ebc565b9050919050565b7f4f776e61626c653a206e6577206f776e657220697320746865207a65726f206160008201527f6464726573730000000000000000000000000000000000000000000000000000602082015250565b6000612f5b602683612321565b9150612f6682612eff565b604082019050919050565b60006020820190508181036000830152612f8a81612f4e565b9050919050565b7f4552433732313a206f70657261746f7220717565727920666f72206e6f6e657860008201527f697374656e7420746f6b656e0000000000000000000000000000000000000000602082015250565b6000612fed602c83612321565b9150612ff882612f91565b604082019050919050565b6000602082019050818103600083015261301c81612fe0565b9050919050565b7f4552433732313a207472616e73666572206f6620746f6b656e2074686174206960008201527f73206e6f74206f776e0000000000000000000000000000000000000000000000602082015250565b600061307f602983612321565b915061308a82613023565b604082019050919050565b600060208201905081810360008301526130ae81613072565b9050919050565b7f4552433732313a207472616e7366657220746f20746865207a65726f2061646460008201527f7265737300000000000000000000000000000000000000000000000000000000602082015250565b6000613111602483612321565b915061311c826130b5565b604082019050919050565b6000602082019050818103600083015261314081613104565b9050919050565b7f4e487b7100000000000000000000000000000000000000000000000000000000600052601160045260246000fd5b6000613181826123d1565b915061318c836123d1565b92508282101561319f5761319e613147565b5b828203905092915050565b60006131b5826123d1565b91506131c0836123d1565b9250827fffffffffffffffffffffffffffffffffffffffffffffffffffffffffffffffff038211156131f5576131f4613147565b5b828201905092915050565b7f4552433732313a207472616e7366657220746f206e6f6e20455243373231526560008201527f63656976657220696d706c656d656e7465720000000000000000000000000000602082015250565b600061325c603283612321565b915061326782613200565b604082019050919050565b6000602082019050818103600083015261328b8161324f565b9050919050565b7f45524337323155524953746f726167653a2055524920717565727920666f722060008201527f6e6f6e6578697374656e7420746f6b656e000000000000000000000000000000602082015250565b60006132ee603183612321565b91506132f982613292565b604082019050919050565b6000602082019050818103600083015261331d816132e1565b9050919050565b600081905092915050565b600061333a82612316565b6133448185613324565b9350613354818560208601612332565b80840191505092915050565b600061336c828561332f565b9150613378828461332f565b91508190509392505050565b7f45524337323155524953746f726167653a2055524920736574206f66206e6f6e60008201527f6578697374656e7420746f6b656e000000000000000000000000000000000000602082015250565b60006133e0602e83612321565b91506133eb82613384565b604082019050919050565b6000602082019050818103600083015261340f816133d3565b9050919050565b600081519050919050565b600082825260208201905092915050565b600061343d82613416565b6134478185613421565b9350613457818560208601612332565b61346081612365565b840191505092915050565b60006080820190506134806000830187612466565b61348d6020830186612466565b61349a60408301856124fc565b81810360608301526134ac8184613432565b905095945050505050565b6000815190506134c681612287565b92915050565b6000602082840312156134e2576134e1612251565b5b60006134f0848285016134b7565b91505092915050565b7f4552433732314d657461646174613a2055524920717565727920666f72206e6f60008201527f6e6578697374656e7420746f6b656e0000000000000000000000000000000000602082015250565b6000613555602f83612321565b9150613560826134f9565b604082019050919050565b6000602082019050818103600083015261358481613548565b9050919050565b6000613596826123d1565b91507fffffffffffffffffffffffffffffffffffffffffffffffffffffffffffffffff8214156135c9576135c8613147565b5b600182019050919050565b7f4e487b7100000000000000000000000000000000000000000000000000000000600052601260045260246000fd5b600061360e826123d1565b9150613619836123d1565b925082613629576136286135d4565b5b828204905092915050565b600061363f826123d1565b915061364a836123d1565b92508261365a576136596135d4565b5b828206905092915050565b7f4552433732313a206d696e7420746f20746865207a65726f2061646472657373600082015250565b600061369b602083612321565b91506136a682613665565b602082019050919050565b600060208201905081810360008301526136ca8161368e565b9050919050565b7f4552433732313a20746f6b656e20616c7265616479206d696e74656400000000600082015250565b6000613707601c83612321565b9150613712826136d1565b602082019050919050565b60006020820190508181036000830152613736816136fa565b9050919050565b7f4e487b7100000000000000000000000000000000000000000000000000000000600052603160045260246000fdfea2646970667358221220ea573456267b691bd3ea49398efe903f0169804f0b12020dfad317f938e606b064736f6c634300080a0033",
  "immutableReferences": {},
  "source": "pragma solidity ^0.8.2;\n\nimport \"@openzeppelin/contracts/token/ERC721/ERC721.sol\";\nimport \"@openzeppelin/contracts/token/ERC721/extensions/ERC721Enumerable.sol\";\nimport \"@openzeppelin/contracts/token/ERC721/extensions/ERC721URIStorage.sol\";\nimport \"@openzeppelin/contracts/access/Ownable.sol\";\nimport \"@openzeppelin/contracts/utils/Counters.sol\";\n\ncontract MunichNFT is ERC721, ERC721Enumerable, ERC721URIStorage, Ownable {\n    using Counters for Counters.Counter;\n\n    Counters.Counter private _tokenIdCounter;\n\n    constructor() ERC721(\"MunichNFT\", \"MUC\") {}\n\n    function mint(address to, string memory uri) public {\n        uint256 tokenId = _tokenIdCounter.current();\n        _tokenIdCounter.increment();\n        _safeMint(to, tokenId);\n        _setTokenURI(tokenId, uri);\n    }\n\n    // The following functions are overrides required by Solidity.\n\n    function _beforeTokenTransfer(address from, address to, uint256 tokenId)\n    internal\n    override(ERC721, ERC721Enumerable)\n    {\n        super._beforeTokenTransfer(from, to, tokenId);\n    }\n\n    function _burn(uint256 tokenId) internal override(ERC721, ERC721URIStorage) {\n        super._burn(tokenId);\n    }\n\n    function tokenURI(uint256 tokenId)\n    public\n    view\n    override(ERC721, ERC721URIStorage)\n    returns (string memory)\n    {\n        return super.tokenURI(tokenId);\n    }\n\n    function supportsInterface(bytes4 interfaceId)\n    public\n    view\n    override(ERC721, ERC721Enumerable)\n    returns (bool)\n    {\n        return super.supportsInterface(interfaceId);\n    }\n}",
  "sourcePath": "/Users/erinc/Documents/munich-nft/chain/contracts/MunichNFT.sol",
  "compiler": {
    "name": "solc",
    "version": "0.8.10+commit.fc410830.Emscripten.clang"
  },
  "schemaVersion": "3.4.3",
  "updatedAt": "2021-12-16T20:48:42.948Z",
  "devdoc": {
    "kind": "dev",
    "methods": {
      "approve(address,uint256)": {
        "details": "See {IERC721-approve}."
      },
      "balanceOf(address)": {
        "details": "See {IERC721-balanceOf}."
      },
      "getApproved(uint256)": {
        "details": "See {IERC721-getApproved}."
      },
      "isApprovedForAll(address,address)": {
        "details": "See {IERC721-isApprovedForAll}."
      },
      "name()": {
        "details": "See {IERC721Metadata-name}."
      },
      "owner()": {
        "details": "Returns the address of the current owner."
      },
      "ownerOf(uint256)": {
        "details": "See {IERC721-ownerOf}."
      },
      "renounceOwnership()": {
        "details": "Leaves the contract without owner. It will not be possible to call `onlyOwner` functions anymore. Can only be called by the current owner. NOTE: Renouncing ownership will leave the contract without an owner, thereby removing any functionality that is only available to the owner."
      },
      "safeTransferFrom(address,address,uint256)": {
        "details": "See {IERC721-safeTransferFrom}."
      },
      "safeTransferFrom(address,address,uint256,bytes)": {
        "details": "See {IERC721-safeTransferFrom}."
      },
      "setApprovalForAll(address,bool)": {
        "details": "See {IERC721-setApprovalForAll}."
      },
      "symbol()": {
        "details": "See {IERC721Metadata-symbol}."
      },
      "tokenByIndex(uint256)": {
        "details": "See {IERC721Enumerable-tokenByIndex}."
      },
      "tokenOfOwnerByIndex(address,uint256)": {
        "details": "See {IERC721Enumerable-tokenOfOwnerByIndex}."
      },
      "totalSupply()": {
        "details": "See {IERC721Enumerable-totalSupply}."
      },
      "transferFrom(address,address,uint256)": {
        "details": "See {IERC721-transferFrom}."
      },
      "transferOwnership(address)": {
        "details": "Transfers ownership of the contract to a new account (`newOwner`). Can only be called by the current owner."
      }
    },
    "version": 1
  },
  "userdoc": {
    "kind": "user",
    "methods": {},
    "version": 1
  }
}